:10000000D0EF4BF00000000000EF00F00000000017
:0C001000000000000000000091EF4BF029
:10001C009180FF0E996E9192030E8714016E015020
:0A002C00030A01E0F9D791821200E7
:0E003600030E0D6E0D2EFED70000000012000E
:10004400EBDF996A6BCB87FF9194F3DFF2DFF1DF8B
:040054009184120081
:100058009190996A6ACB87FF9194E9DFE8DFE7DF3F
:04006800918412006D
:10006C00D7DFC50E0B016B6FE7DFFF0E996EDDDF7F
:10007C00919091929184D9DFD8DFD7DF87CF6AFB3B
:08008C00C7DF6ACB00F012008F
:10009400086A096A100E0C6E0134083609360450D9
:1000A400085E0550D8A0053C095ED8B007D00450BE
:1000B40008260550D8B0053C0926D89000360136EC
:0600C4000C2EEAD7120029
:1000CA000B6A0A6A096A00500402F4CF09F0F3CFF6
:1000DA0008F001500502F4CF0BF0F3CF0AF00050FC
:1000EA000502F3500926F4500A22E86A0B2201504D
:1000FA000402F3500926F4500A22E86A0B2208C0C7
:10010A0000F009C001F00AC002F00BC003F01200AF
:10011A00F250026EF29E0500FF6A0150FE6E005018
:08012A00FD6E02BEF28E120010
:100132000201E7510B01615D04E10201E6510B018D
:10014200605D01E3A5D00201E9510B01635D04E1A9
:100152000201E8510B01625D01E39AD0800E611940
:10016200006E800E005C02E1000E605D01E290D044
:10017200800E6319006E800E005C02E1000E625D6B
:1001820001E286D0F4C204F0F5C205F060CB00F0C3
:1001920061CB01F07EDF00C068FB01C069FB62CB6E
:1001A20000F063CB01F0F0C204F0F1C205F08CDF85
:1001B20068510026000E01220201EE510024036E56
:1001C200EF510120046E04C000F0016A00C065FB1B
:1001D20003C06AFB40DF65CB6AFB3DDF240E0B01E7
:1001E2006B6F2FDF0B016451020A38E116DF3DDF2E
:1001F20000C068FB68CB66FBF4C204F0F5C205F0F0
:1002020060CB00F061CB01F044DF08C000F009C010
:1002120001F000500201F45D006E000600C001F022
:10022200010E006E015004E000360090FF0FFBD774
:1002320000C067FB0B016851001607E0671D006EE6
:1002420000C067FB0050661702D06751661366CB89
:100252006AFB01DFC40E6B6FF4DE1AD0F00E0B01E5
:1002620064116B6FF4C204F0F5C205F060CB00F0CC
:1002720061CB01F00EDF08C000F009C001F00050B0
:100282000201F45D006E000600500B016B13D9DE13
:02029200120058
:100294004BCBC9FF016A0150000A05E1000EC7B04B
:0C02A400010E016EF8D7C9CF01F0120066
:1002B0004BCBC9FF016A0150000A05E1000EC7B02F
:0C02C000010E016EF8D7C9CF00F012004B
:1002CC004BCB09F34CCB0AF34DCB0BF3020E0B01CA
:1002DC004B25F66E000E4C21F76E000E4D21F86E7C
:1002EC000900F5CF04F0030E4B25F66E000E4C21E1
:1002FC00F76E000E4D21F86E0900F5CF03F003C028
:10030C0001F0006A045000240201E46F000E012089
:10031C00E56F040E0B014B25F66E000E4C21F76EAB
:10032C00000E4D21F86E0900F5CF04F0050E4B259B
:10033C00F66E000E4C21F76E000E4D21F86E090082
:10034C00F5CF03F003C001F0006A04500024020151
:10035C00D56F000E0120D66F060E0B014B25F66EE5
:10036C00000E4C21F76E000E4D21F86E0900F5CFF2
:10037C00D3F2000E0201D46F4ECBF8F2000EF96FDF
:10038C004FCBE3F2010E0001936F0201F66BF76B9A
:02039C0012004D
:10039E000B014D51515D016E4E515259026E01C00D
:1003AE0058FB02C059FB4B514F5D5A6F4C5150597F
:1003BE005B6F800E0218006E800E005C02E1000E74
:1003CE00015C0BE258510008586F5951000E5957F5
:1003DE00FF0E5E6FFF0E5F6F04D0010E5E6F000E9C
:1003EE005F6F800E5B19006E800E005C02E1000EE6
:1003FE005A5D0BE25A5100085A6F5B51000E5B5763
:10040E00FF0E5C6FFF0E5D6F04D0010E5C6F000E71
:10041E005D6F5837589159375A375A915B374BCBD6
:10042E0060FB4CCB61FB4DCB62FB4ECB63FB53CBE6
:10043E0064FB78DE800E0B015919006E800E5B197D
:10044E00005C02E15A51585D42E25ACB00F05BCBA0
:10045E0001F001320032019E01BC018E0050585D48
:10046E00546F01505959556F0B014C51501902E1FF
:10047E004F514B192BE0800E5519006E800E005C0B
:10048E0002E1000E545D08E35E514D275F514E238D
:10049E005A51545F5B51555B5C514B25006E5D515B
:1004AE004C21016E00C04BFB01C04CFB5851542730
:1004BE005951552300C060FB01C061FB4DCB62FB5F
:1004CE004ECB63FB53CB64FB2DDECED742D058CB45
:1004DE0000F059CB01F001320032019E01BC018EB9
:1004EE0000500B015A5D566F01505B59576F0B014F
:1004FE004E51521902E151514D192BE0800E5719F0
:10050E00006E800E005C02E1000E565D08E35C5149
:10051E004B275D514C235851565F5951575B5E51D5
:10052E004D25006E5F514E21016E00C04DFB01C086
:10053E004EFB5A5156275B5157234BCB60FB4CCB8E
:10054E0061FB00C062FB01C063FB53CB64FBEADDC1
:04055E00CED71200E2
:0E056200570E0D6E0D2EFED700000000120089
:10057000CB0E0B01576F020E586F000E006E5051DC
:10058000005C02E14F51000843E2E1C2E1FFE2C238
:10059000E2FF4BCBE6FF4CCBE6FF4DCBE6FF4ECB6D
:1005A000E6FF4FCBE6FF50CBE6FF530EE66E0B0E99
:1005B000E66EDFC200F0E0C201F0AFDD00C055FB27
:1005C00001C056FB0B01516B526B5451525D02E15D
:1005D0005351515D11E255CBE9FF56CBEAFF57CBA2
:1005E000E1FF58CBE2FFEECFE6FF574B582B554BC0
:1005F000562B514B522BE9D753514F5F5451505BFF
:1006000053514B2754514C23000E4D234E23B5D745
:020610001200D6
:100612008D9031CB00F0003600907F0E00160080E6
:1006220000C031FB00C04BFB34DE32CB4BFB31DE72
:040632008D801200A5
:10063600830EC21631CB00F00036009000360090D3
:100646000050C2128BDFC282C2A201D0FDD7C4CF36
:1006560001F0006A00C032FB01C033FBC350001238
:10066600000E011200C032FB01C033FB000E001465
:10067600026E0150800B036E000E031802E1000E9D
:10068600021803E00B01326B336B32CB00F033CB35
:0406960001F012005D
:10069A000B01326B8D9031CB00F0003600907E0E4C
:1006AA00001600C031FB00C04BFBEFDD32CB4BFB29
:0606BA00FADD8D80120044
:1006C00032CB00F0016A00C034FB31CB6AFBC4DCE2
:0E06D00034CB6AFBC1DC33CB6BFBB4DC120015
:1006DE000201E5510B01325D04E10201E4510B010F
:1006EE00315D01E246D032510201D65D04E10B01CB
:1006FE0031510201D55D01E23CD000019351000A57
:10070E000EE1AD0E0B014B6FBE0E4C6F000E4D6F1A
:10071E00080E4E6F4F6BD3DD010E0001936F020179
:10072E00E4510B01315D016E0201E5510B013259AD
:10073E00026E01C003F002C004F0033603900436CB
:10074E00033603900436080E03010925006E000ED1
:10075E000A21016E000E0B21026E03500024F66E6C
:10076E0004500120F76E000E0220F86E0900F5CF3E
:04077E0000F0120075
:10078200800E0B013619006E800E3219005C02E1F8
:100792003151355D17E331CB4BFB32CB4CFB33CBC5
:1007A2004DFB34CB4EFB31CB4FFB32CB50FB37CB27
:1007B20051FB38CB52FB39CB53FBF0DD0B01314BF4
:0607C200322BDED712000D
:1007C8000201E5510B01325D04E10201E4510B0124
:1007D800315D01E247D032510201D65D04E10B01DF
:1007E80031510201D55D01E23DD0E4510B01315D8B
:1007F800036E0201E5510B013259046E03C000F08B
:1008080004C001F000360090013600360090013631
:10081800080E0201D7250B014B6F000E0201D821EB
:100828000B014C6F000E0201D9210B014D6F000E18
:100838000201DA210B014E6F00504B2701504C2367
:10084800000E4D234E23040E4F6F000E506F8CDEAA
:10085800CB0E336F020E346F33CBE9FF34CBEAFF94
:06086800EECF00F01200CB
:10086E000B01396B3A6B3B6B00019351000A0EE1A1
:10087E00AD0E0B014B6FBE0E4C6F000E4D6F080E82
:10088E004E6F4F6B1CDD010E0001936F000E006E5C
:10089E000201E551005C03E1E4510B01315D01E21F
:1008AE0009D1000E0201D65D04E10B0131510201A6
:1008BE00D55D01E2FFD0E4510B01315D016EE5C261
:1008CE0002F0000E025601C003F002C004F003361F
:1008DE0003900436033603900436080E03010925EF
:1008EE00006E000E0A21016E000E0B21026E000E2C
:1008FE00056E00500326015004220250052203C04B
:10090E00F6FF04C0F7FF05C0F8FF0900F5CF39FB6D
:10091E00010E0324F66E000E0420F76E000E052065
:10092E00F86E0900F5CF00F000C006F0000E076E5D
:10093E00086E096E020E0324F66E000E0420F76E8A
:10094E00000E0520F86E0900F5CF03F003C001F08C
:10095E00006A000E026E036E06500026075001223A
:10096E000850022209500322095100240B01366F50
:10097E0003010A5101200B01376F03010B510220B5
:10098E000B01386F0201E351000A4BE1DBC234FB6D
:10099E000B01336B000E006E0201D451005C03E1BB
:1009AE00D3510B01335D34E20B01DDC23AFB356BE3
:1009BE00326B3951325D29E23551000A10E136CBE6
:1009CE00F6FF37CBF7FF38CBF8FF0900F5CF3BFB2F
:1009DE00010E3627000E37233823010E356F3551A1
:1009EE003B15006E0CE03ACB60FB000E616F34CB12
:1009FE0062FB000E636FF8C264FB99EC00F00B0112
:100A0E003A2B35373591322BD4D7342B332BC2D7E3
:100A1E000B013A51010F0201DD6FDE6B000EDE237A
:100A2E0049D0DDC234FB0B01336B000E006E0201A8
:100A3E00D451005C03E1D3510B01335D34E20B0161
:100A4E00DBC23AFB356B326B3951325D29E23551DF
:100A5E00000A10E136CBF6FF37CBF7FF38CBF8FFA5
:100A6E000900F5CF3BFB010E3627000E3723382346
:100A7E00010E356F35513B15006E0CE034CB60FB2B
:100A8E00000E616F3ACB62FB000E636FF8C264FB1F
:100A9E0099EC00F00B013A0735373591322BD4D74C
:100AAE00342B332BC2D70B013A050201DB6FDC6B03
:060ABE00000EDC5B1200DB
:100AC4000B01466B476B486B496B0201E5510B0107
:100AD400325D04E10201E4510B01315D01E2F1D127
:100AE40032510201D65D04E10B0131510201D55DA1
:100AF40001E2E7D1E4510B01315D036E0201E551DE
:100B04000B013259046E03C000F004C001F000363A
:100B140000900136003600900136080E0201D725F8
:100B24000B014B6F000E0201D8210B014C6F000E1C
:100B34000201D9210B014D6F000E0201DA210B01D4
:100B44004E6F00504B2701504C23000E4D234E2373
:100B5400040E4F6F000E506F09DDCB0E446F020E72
:100B6400456F44CBE9FF45CBEAFFEECF4AFB4ACBC6
:100B740046FB010E4425E96E000E4521EA6EEECFD8
:100B840004F0000E056E066E076E020E4425E96E33
:100B9400000E4521EA6EEECF03F003C001F0006AB7
:100BA400000E026E036E045000260550012206500A
:100BB40002220750032200500201D7250B01386F8F
:100BC40001500201D8210B01396F02500201D921D1
:100BD4000B013A6F03500201DA210B013B6F4ACB40
:100BE40000F00032009E0032009E0032009E000E93
:100BF400016ED3C204F0D4C205F065EC00F000C06D
:100C04003EFB01C03FFB070E4A15006E08E00201DF
:100C1400D3510B013E270201D4510B013F233ECB9C
:100C240042FB3FCB43FBE1C2E1FFE2C2E2FF38CB30
:100C3400E6FF39CBE6FF3ACBE6FF3BCBE6FF3ECB04
:100C4400E6FF3FCBE6FF3C0EE66E0B0EE66EDFC220
:100C540000F0E0C201F08DEC00F000C044FB01C0E4
:100C640045FB0B013C5138273D513923000E3A23F3
:100C74003B233C513E5F3D513F5B406B416B020166
:100C8400E351000AD8A48ED0DBC235FBDCC236FBAC
:100C94000B01346B000E006E0201D451005C03E1C1
:100CA400D3510B01345DD8B072D00B01DDC247FBC8
:100CB400DEC248FB376B336B4651335D64E2375118
:100CC400000A4AE1404B412B43513D5D02E1425150
:100CD4003C5D38E241513D5D02E140513C5D32E210
:100CE400010E406F000E416FE1C2E1FFE2C2E2FF7C
:100CF40038CBE6FF39CBE6FF3ACBE6FF3BCBE6FF4A
:100D04003ECBE6FF3FCBE6FF3C0EE66E0B0EE66EF7
:100D1400DFC200F0E0C201F08DEC00F000C044FB43
:100D240001C045FB3ECB42FB3FCB43FB0B013C5197
:100D340038273D513923000E3A233B233C513E5F73
:100D44003D513F5B44CBE9FF45CBEAFFEECF49FB86
:100D5400444B452B010E376F37514915006E0CE09B
:100D640047CB60FB48CB61FB35CB62FB36CB63FBE7
:100D7400F8C264FB99EC00F00B01474B482B373762
:100D84003791332B99D7354B362B342B83D70B0123
:100D9400010E47250201DD6F000E0B0148210201FF
:100DA400DE6F8FD0DDC235FBDEC236FB0B01346B48
:100DB400000E006E0201D451005C03E1D3510B011B
:100DC400345DD8B074D00B01DBC247FBDCC248FBF6
:100DD400376B336B4651335D66E23751000A4AE1A3
:100DE400404B412B43513D5D02E142513C5D38E2B1
:100DF40041513D5D02E140513C5D32E2010E406FE4
:100E0400000E416FE1C2E1FFE2C2E2FF38CBE6FF30
:100E140039CBE6FF3ACBE6FF3BCBE6FF3ECBE6FF22
:100E24003FCBE6FF3C0EE66E0B0EE66EDFC200F033
:100E3400E0C201F08DEC00F000C044FB01C045FBB2
:100E44003ECB42FB3FCB43FB0B013C5138273D518A
:100E54003923000E3A233B233C513E5F3D513F5B17
:100E640044CBE9FF45CBEAFFEECF49FB444B452B8E
:100E7400010E376F37514915006E0CE035CB60FB1E
:100E840036CB61FB47CB62FB48CB63FBF8C264FB08
:100E940099EC00F0010E0B01475F000E485B3737F9
:100EA4003791332B97D7354B362B342B81D70B0106
:100EB400010E475D0201DB6F000E0B014859020170
:040EC400DC6F1200CD
:100EC80031CBDDF232CBDEF233CBDBF234CBDCF2EA
:020ED800120006
:100EDA001B0E0B01316F4DEC03F0000E00140B01D9
:0C0EEA00326F1B0E316F09EC03F0120098
:100EF6000B010F6B050E0F5D0AE20F510D25E16E1A
:100F0600000E0E21E26E200EE66E0F2BF3D70F5168
:100F16000D25E16E000E0E21E26EE66A0F070F51F7
:100F26000D25106F000E0E21116F0A0E046E000EB5
:100F3600056E0BCB00F00CCB01F04AEC00F008C0BC
:100F460000F009C001F0300E002610CBE1FF11CBF6
:100F5600E2FF00C0E6FF0A0E046E000E056E0BCB24
:100F660000F00CCB01F04AEC00F000C00BFB01C016
:100F76000CFB000E011802E1000E001801E102D080
:060F86000F07CDD7120099
:100F8C000BCB4BFB0CCB4CFB0DCB4DFB0ECB4EFBD9
:100F9C000FCB4FFB10CB50FB0DCB51FB0ECB52FBB1
:100FAC0013CB53FBCFEC01F00FCB4BFB10CB4CFB1B
:100FBC000DCB4DFB0ECB4EFB0FCB4FFB10CB50FB99
:100FCC0011CB51FB12CB52FB13CB53FBCFEC01F0EB
:100FDC000FCB4BFB10CB4CFB11CB4DFB12CB4EFB79
:100FEC000BCB4FFB0CCB50FB11CB51FB12CB52FB61
:100FFC0013CB53FBCFEC01F00BCB4BFB0CCB4CFBD3
:10100C0011CB4DFB12CB4EFB0BCB4FFB0CCB50FB48
:10101C000DCB51FB0ECB52FB13CB53FBCFEC01F0A2
:02102C001200B0
:10102E000B010E6B8D90030E026E0BCB00F00CCBF2
:10103E0001F0025007E001320032019E01BC018E28
:10104E00FF0FF8D77F0E00144B6F4B8F050E006EFF
:10105E000BCB0EFB005004E00E370E91FF0FFBD7AB
:10106E00E00E0E170E894AEC01F00ECB4BFB4AEC4C
:0E107E0001F00DCB4BFB4AEC01F08D8012000F
:10108C001B0E0B01316F4DEC03F0010E00100B0128
:0C109C00326F1B0E316F09EC03F01200E4
:1010A8000201E7510B010F5D04E10201E6510B015A
:1010B8000E5D01E34FD00201E9510B01115D04E11E
:1010C8000201E8510B01105D01E344D0126B136B70
:1010D8000ECB31FB0FCB32FB10CB33FB11CB34FBE8
:1010E800EFDE12510B25F66E13510C21F76E000E30
:1010F8000D21F86E0900F5CF00F000522BE0020137
:10110800F651F71114E00B0112510B25F66E13512D
:101118000C21F76E000E0D21F86E0900F5CF31FB9A
:10112800000E326FCBDC0B01124B132B12D00B01CC
:1011380012510B25F66E13510C21F76E000E0D217E
:10114800F86E0900F5CF31FB37EC04F00B01124BB8
:06115800132BC7D71200A3
:10115E000B01136B0201E7510B010F5D04E102015C
:10116E00E6510B010E5D01E34ED00201E9510B0178
:10117E00115D04E10201E8510B01105D01E343D062
:10118E000201BA6BBB6BB86BB96B0BCB00F00CCB1F
:10119E0001F00DCB02F0010E0B010B27000E0C23FC
:1011AE000D2300C0F6FF01C0F7FF02C0F8FF0900D3
:1011BE00F5CF00F000C012FB00521CE00201F65108
:1011CE00F7110CE012CB31FB000E0B01326FE4EC89
:1011DE0003F0002A00500B0113270BD00B0112CB8A
:1011EE0031FB000E326F6FEC03F0002A00500B0142
:1011FE001327CBD713CBBAF2000E0201BB6FD3C2AB
:08120E00B8F2D4C2B9F21200DB
:101216001B0E0B01316F4DEC03F0000E00140B0199
:0C122600326F1B0E316F09EC03F0120058
:101232000201E7510B010E5D04E10201E6510B01CF
:101242000D5D01E343D00201E9510B01105D04E1A0
:101252000201E8510B010F5D01E338D0116B126BF3
:101262000DCB31FB0ECB32FB0FCB33FB10CB34FB60
:101272002ADE11510B25E96E12510C21EA6EEE5253
:1012820025E00201F651F71112E00B0111510B2575
:10129200E96E12510C21EA6EEECF31FB000E326F75
:1012A200000E326F0EDC0B01114B122B0ED00B0114
:1012B20011510B25E96E12510C21EA6EEECF31FB72
:0E12C20037EC04F00B01114B122BD3D71200A6
:1012D0000B010F510B5D016E10510C59026E01C0D4
:1012E00024FB02C025FB800E0218006E800E005CFD
:1012F00002E1000E015C16E224510008036E25CBCA
:1013000004F0000E045613CB01F014CB02F00136AA
:10131000019002360250045C02E10150035C01E2DC
:101320001DD20ED013CB01F014CB02F00136019088
:1013300002360250255D02E10150245D01E20ED229
:1013400011510D5D016E12510E59026E01C024FB48
:1013500002C025FB800E0218006E800E005C02E1C8
:10136000000E015C16E224510008036E25CB04F048
:10137000000E045613CB01F014CB02F0013601909D
:1013800002360250045C02E10150035C01E2E6D146
:101390000ED013CB01F014CB02F0013601900236CF
:1013A0000250255D02E10150245D01E2D7D10BCB53
:1013B00031FB0CCB32FB13510D25336F14510E2131
:1013C000346F334B342B0FCB35FB10CB36FB135123
:1013D000115D376F14511259386F010E375F000ECF
:1013E000385B15CB39FBC1EC03F01A6B1B6B266B1A
:1013F000276B13510D25006E14510E21016E1351F0
:101400000F5D046E14511059056E0450005C1C6F82
:10141000055001581D6F13510B25026E14510C21FC
:10142000036E0250005C1E6F035001581F6F135172
:10143000115D006E14511259016E0250005C206F54
:1014400003500158216F0450005C226F0550015871
:10145000236F13CB18FB14CB19FB13CB28FB14CB36
:1014600029FB13CB00F014CB01F0003600900136BD
:1014700000C016FB01C017FB00500308166F01C027
:1014800017FB000E1757010E1825016E000E1921CB
:10149000026E800E1B19006E800E0218005C02E1C5
:1014A00001501A5DD8B0F9D02951191902E118512B
:1014B000281959E013510B254B6F14510C214C6F17
:1014C00026514B5F27514C5B1351115D006E145137
:1014D0001259016E285100262951012200C04DFBEE
:1014E00001C04EFB13510F5D4F6F14511059506FD7
:1014F00026514F272751502300C051FB01C052FBFA
:1015000015CB53FBCFEC01F00B0113510B254B6FA7
:1015100014510C214C6F26514B5F27514C5B1351DA
:101520000D25006E14510E21016E2851005E2951C7
:10153000015A00C04DFB01C04EFB13510F5D4F6FB0
:1015400014511059506F26514F272751502300C076
:1015500051FB01C052FB15CB53FBCFEC01F018CB74
:1015600028FB19CB29FB0B011351115D026E14519D
:101570001259036E185102244B6F195103204C6FFE
:1015800022514B5F23514C5B1A510224006E1B51B8
:101590000320016E00C04DFB01C04EFB1851025CE0
:1015A0004F6F19510358506F20514F5F2151505BBD
:1015B00000C051FB01C052FB15CB53FBCFEC01F037
:1015C0000B0113510D25026E14510E21036E18519B
:1015D000025C4B6F195103584C6F1E514B5F1F51EA
:1015E0004C5B1A51025C006E1B510358016E00C027
:1015F0004DFB01C04EFB185102244F6F19510320BF
:10160000506F1C514F5F1D51505B00C051FB01C01A
:1016100052FB15CB53FBCFEC01F0800E0B011719D9
:10162000006E800E005C02E1000E165D13E21ACB24
:1016300000F01BCB01F00036009001360036009020
:101640000136060E0026000E01220050162701501A
:10165000172320D018511A5D036E19511B59046EBF
:1016600003C000F004C001F00036009001360036DF
:10167000009001360A0E0026000E012200501627A7
:1016800001501723010E185F000E195B1ACB26FBC1
:101690001BCB27FB1A4B1B2BF6D6010E1A5D016ED6
:1016A000000E1B59026E0250291902E1285101183F
:1016B00055E013510B254B6F14510C214C6F2651E3
:1016C0004B5F27514C5B1351115D006E1451125941
:1016D000016E285100262951012200C04DFB01C096
:1016E0004EFB13510F5D4F6F14511059506F26511F
:1016F0004F272751502300C051FB01C052FB15CB8F
:1017000053FBCFEC01F00B0113510B254B6F145120
:101710000C214C6F26514B5F27514C5B13510D250B
:10172000006E14510E21016E2851005E2951015A9C
:1017300000C04DFB01C04EFB13510F5D4F6F1451A4
:101740001059506F26514F272751502300C051FB8D
:0E17500001C052FB15CB53FBCFEC01F0120091
:10175E000B010F510B5D016E10510C59026E01C041
:10176E0024FB02C025FB800E0218006E800E005C6A
:10177E0002E1000E015C16E224510008036E25CB37
:10178E0004F0000E045613CB01F014CB02F0013618
:10179E00019002360250045C02E10150035C01E24A
:1017AE002CD20ED013CB01F014CB02F001360190E7
:1017BE0002360250255D02E10150245D01E21DD288
:1017CE0011510D5D016E12510E59026E01C024FBB6
:1017DE0002C025FB800E0218006E800E005C02E136
:1017EE00000E015C16E224510008036E25CB04F0B6
:1017FE00000E045613CB01F014CB02F0013601900B
:10180E0002360250045C02E10150035C01E2F5D1A4
:10181E000ED013CB01F014CB02F00136019002363C
:10182E000250255D02E10150245D01E2E6D1135123
:10183E000B254B6F14510C214C6F4B4B4C2B0DCB7E
:10184E004DFB0ECB4EFB13510F5D4F6F14511059C4
:10185E00506F010E4F5F000E505B0DCB51FB0ECB48
:10186E0052FB15CB53FBCFEC01F00B0113510B25A3
:10187E004B6F14510C214C6F4B4B4C2B11CB4DFB22
:10188E0012CB4EFB13510F5D4F6F14511059506F09
:10189E00010E4F5F000E505B11CB51FB12CB52FB72
:1018AE0015CB53FBCFEC01F00BCB4BFB0CCB4CFB16
:1018BE000B0113510D254D6F14510E214E6F4D4BD3
:1018CE004E2B0BCB4FFB0CCB50FB1351115D516FBD
:1018DE0014511259526F010E515F000E525B15CB0F
:1018EE0053FBCFEC01F00FCB4BFB10CB4CFB0B01A2
:1018FE0013510D254D6F14510E214E6F4D4B4E2B26
:10190E000FCB4FFB10CB50FB1351115D516F145188
:10191E001259526F010E515F000E525B15CB53FBE5
:10192E00CFEC01F00B011A6B1B6B13510D25006EE2
:10193E0014510E21016E13510F5D046E1451105986
:10194E00056E0450005C1C6F055001581D6F13513D
:10195E000B25026E14510C21036E0250005C1E6F9B
:10196E00035001581F6F1351115D006E145112591F
:10197E00016E0250005C206F03500158216F04501D
:10198E00005C226F05500158236F13CB18FB14CB4C
:10199E0019FB13CB00F014CB01F00036009001368A
:1019AE0000C016FB01C017FB00500308166F01C0E4
:1019BE0017FB000E1757010E1825016E000E192188
:1019CE00026E800E1B19006E800E0218005C02E182
:1019DE0001501A5DD8B011D113510B25606F1451FF
:1019EE000C21616F1A51605F1B51615B1351115DC8
:1019FE00626F14511259636F185162271951632384
:101A0E0015CB64FB99EC00F00B0113510F5D606F69
:101A1E0014511059616F1A5160271B5161231351D4
:101A2E00115D626F14511259636F1851622719516B
:101A3E00632315CB64FB99EC00F00B0113510B25BE
:101A4E00606F14510C21616F1A51605F1B51615B05
:101A5E0013510D25626F14510E21636F1851625F81
:101A6E001951635B15CB64FB99EC00F00B0113511C
:101A7E000F5D606F14511059616F1A5160271B5121
:101A8E00612313510D25626F14510E21636F18518E
:101A9E00625F1951635B15CB64FB99EC00F00B018F
:101AAE001B51191902E118511A196BE01351115DEE
:101ABE00006E14511259016E18510024606F1951A5
:101ACE000120616F2251605F2351615B1A51002426
:101ADE00626F1B510120636F15CB64FB99EC00F014
:101AEE000B011351115D006E14511259016E1851F4
:101AFE00005C606F19510158616F2051605F215178
:101B0E00615B1A510024626F1B510120636F15CB6C
:101B1E0064FB99EC00F00B0113510D25006E14516E
:101B2E000E21016E1851005C606F19510158616FE2
:101B3E001E51605F1F51615B1A51005C626F1B5139
:101B4E000158636F15CB64FB99EC00F00B01135138
:101B5E000D25006E14510E21016E18510024606F78
:101B6E0019510120616F1C51605F1D51615B1A514B
:101B7E00005C626F1B510158636F15CB64FB99ECCF
:101B8E0000F0800E0B011719006E800E005C02E152
:101B9E00000E165D13E21ACB00F01BCB01F00036DF
:101BAE0000900136003600900136060E0026000E1B
:101BBE00012200501627015017231CD018511A5D10
:101BCE00036E19511B59046E03C000F004C001F0DE
:101BDE000036009001360036009001360A0E0026BF
:101BEE00000E01220050162701501723010E185F18
:0C1BFE00000E195B1A4B1B2BDED61200E8
:101C0A00100E0C6E940E0D6E0D2EFED70C2EFCD7F8
:041C1A0000001200B4
:101C1E004E0E0C6EEB0E0D6E0D2EFED70C2EFCD74F
:021C2E001200A2
:101C30000B01286B296B266B276B0201E7510B0107
:101C40000C5D04E10201E6510B010B5D17E202019C
:101C5000E9510B010E5D04E10201E8510B010D5D3C
:101C60000DE2000E101902E1000E0F1907E0000E40
:101C7000121902E1000E111901E001D0BED10F517D
:101C80000B25016E10510C21026E02500201E75D1E
:101C900002E10150E65D0BE20B010B510201E65D32
:101CA0000B010F6F0C510201E7590B01106F0B0173
:101CB00011510D25016E12510E21026E02500201CA
:101CC000E95D02E10150E85D0BE20B010D510201FB
:101CD000E85D0B01116F0E510201E9590B01126F02
:101CE0000B01F4C204F0F5C205F00BCB00F00CCBF5
:101CF00001F04AEC00F008C000F009C001F000C09B
:101D00002AFB0F510B252F6F10510C21306FF4C29D
:101D100004F0F5C205F02FCB00F030CB01F04AEC17
:101D200000F008C000F009C001F000C02BFBF4C2B5
:101D300004F0F5C205F00BCB00F00CCB01F04AEC3F
:101D400000F000C020FB01C021FB010E2F5D006EE2
:101D5000000E3059016EF4C204F0F5C205F04AECF1
:101D600000F000C022FB01C023FBF4C204F0F5C266
:101D700005F013CB00F014CB01F04AEC00F008C0E2
:101D800000F009C001F0000E026E0150025C02E199
:101D90000050000811E2F4C204F0F5C205F013CBC4
:101DA00000F014CB01F04AEC00F0010E0024246F87
:101DB000000E0120256F0ED0F4C204F0F5C205F02C
:101DC00013CB00F014CB01F04AEC00F000C024FB70
:101DD00001C025FB1E6B1F6B1A6B1B6B12511B5D29
:101DE00002E111511A5DD8B008D1286B266B276B20
:101DF00020CB1CFB21CB1DFB1D51235D02E11C519F
:101E0000225DD8A0F3D0F4C204F0F5C205F00BCBEC
:101E100000F00CCB01F04AEC00F01C5100261D51E3
:101E200001222051005C2F6F21510158306F1A514F
:101E30000D25006E1B510E21016EF0C204F0F1C29F
:101E400005F065EC00F02F510024316F3051012076
:101E5000326F0201EE510B0131270201EF510B01EC
:101E60003223240E336F60EC03F00EEC00F00B0114
:101E700016511B5D02E115511A5D07E22551275DE0
:101E800002E12451265D01E202D0296B14D02651D3
:101E90001E25006E27511F21016E00501725F66E7A
:101EA00001501821F76E000E1921F86E0900F5CFC8
:101EB00029FB264B272B2A5100081CE22ACB00F0D5
:101EC00029CB2CFB005004E02C332C9FFF0FFBD7B9
:101ED0002A510201F45D006E00C001F028CB00F031
:101EE000015004E000360090FF0FFBD700500B01BB
:101EF0002C1302D029CB2CFB1D51211902E12051BA
:101F00001C191BE12A51000818E236EC00F000C051
:101F10002DFB0B012A510201F45D016E01C002F09C
:101F2000FF0E016E025004E001360190FF0FFBD757
:101F30000150001600500B012C131D51231902E112
:101F400022511C1945E12B51000842E236EC00F009
:101F500000C02DFB0B012B510201F45D006E00C08F
:101F600001F0FF0E006E015004E000360090FF0FFC
:101F7000FBD700500B012C17000E0201F51902E1EE
:101F8000080EF4190FE12BCB01F0FF0E006E01508B
:101F900004E00032009EFF0FFBD700500B012D150F
:101FA0002E6F14D00B01020E2B25006E016A000E5D
:101FB000012200C001F0FF0E006E015004E000326B
:101FC000009EFF0FFBD700502D152E6F2E512C13A6
:101FD0002CCB6AFB2CEC00F0C40E6B6F22EC00F0F3
:101FE00029CB28FB0B011C4B1D2B06D724511E2788
:0C1FF00025511F231A4B1B2BF1D61200A9
:101FFC000B01126B0201E7510B010E5D04E10201B2
:10200C00E6510B010D5D01E346D00201E9510B01D4
:10201C00105D04E10201E8510B010F5D01E33BD0BF
:10202C000201BA6BBB6BB86BB96B0BCB00F00CCB72
:10203C0001F00B010B4B0C2B00C0E9FF01C0EAFFB8
:10204C00EECF00F000C011FB00521CE00201F65173
:10205C00F7110CE011CB31FB000E0B01326FE4ECED
:10206C0003F0002A00500B0112270BD00B0111CBEF
:10207C0031FB000E326F6FEC03F0002A00500B01A5
:10208C001227D3D712CBBAF2000E0201BB6FD3C208
:08209C00B8F2D4C2B9F212003F
:1020A4000C0E0B010125F66E000E0221F76E000ED8
:1020B4000321F86E0900F5CF01F00150010A67E130
:1020C400030E0125F66E000E0221F76E000E0321A9
:1020D400F86E0900F5CF0BFB000E0C6F040E012502
:1020E400F66E000E0221F76E000E0321F86E090051
:1020F400F5CF0DFB000E0E6F050E0125F66E000EDA
:102104000221F76E000E0321F86E0900F5CF0FFBD4
:10211400000E106F060E0125F66E000E0221F76EFA
:10212400000E0321F86E0900F5CF11FB000E126FAB
:10213400070E0125F66E000E0221F76E000E032134
:10214400F86E0900F5CF13FB000E146F080E01257D
:10215400F66E000E0221F76E000E0321F86E0900E0
:10216400F5CF15FB000E166F090E0125F66E000E55
:102174000221F76E000E0321F86E0900F5CF17FB5C
:102184000900F5CF18FB0900F5CF19FB4FDD12004C
:102194000B01076B086B01CB09FB02CB0AFB800E1A
:1021A4000219006E800E005C02E1000E015D0BE27C
:1021B400010E076F000E086F01510008096F02CB72
:1021C4000AFB000E0A5709CB0BFB0ACB0CFB03CB13
:1021D4000DFB04CB0EFB7BEC07F0060E056F000E27
:1021E400066F000E006E0651005C02E10551000806
:1021F40019E205510325E16E06510421E26E010E38
:10220400055D006E000E0659016E00500325E96E4F
:1022140001500421EA6EEECFE6FF010E055F000EC9
:10222400065BDFD703CBE1FF04CBE2FF200EE66EB3
:10223400075108111AE0056B066B05510325E96E79
:1022440006510421EA6EEE50200A03E1054B062BE9
:10225400F4D7010E055F000E065B05510325E16E00
:0C22640006510421E26E2D0EE66E120001
:102270000C0E0B010125E96E000E0221EA6EEE50F4
:10228000010A55E1030E0125E96E000E0221EA6EF6
:10229000EECF0BFB000E0C6F000E0C6F040E012531
:1022A000E96E000E0221EA6EEECF0DFB000E0E6FFE
:1022B000000E0E6F050E0125E96E000E0221EA6E7A
:1022C000EECF0FFB000E106F000E106F060E0125F3
:1022D000E96E000E0221EA6EEECF11FB000E126FC6
:1022E000000E126F070E0125E96E000E0221EA6E44
:1022F000EECF13FB000E146F000E146F080E0125B5
:10230000E96E000E0221EA6EEECF15FB000E166F8D
:10231000000E166F090E0125E96E000E0221EA6E0D
:10232000EECF17FBEECF18FBEECF19FB81DC1200CE
:10233000070E0B010125E96E000E0221EA6EEE5038
:10234000010AD8A483D0090E0125E96E000E0221EE
:10235000EA6EEE50010A3DE1030E0125E96E000E22
:102360000221EA6EEECF01F001C00BFB000E0C6FF4
:10237000040E0125E96E000E0221EA6EEECF00F098
:1023800000C00DFB000E0E6F050E0125D96E000E6C
:102390000221DA6EDE5001240F6F106B000E102345
:1023A000010E0F5F000E105B060E0125D96E000EA8
:1023B0000221DA6EDE500024116F126B000E122320
:1023C000010E115F000E125B080E136FC6EC07F0D2
:1023D0003DD0030E0B010125E96E000E0221EA6ECD
:1023E000EECF01F001C031FB000E326F040E01256B
:1023F000E96E000E0221EA6EEECF00F000C033FB62
:10240000000E346F050E0125D96E000E0221DA6E22
:10241000DE500124356F366B000E3623010E355F1A
:10242000000E365B060E0125D96E000E0221DA6E13
:10243000DE500024376F386B000E3823010E375FF3
:0E244000000E385B080E396FC1EC03F012007D
:10244E000E0E0B010125F66E000E0221F76E000E28
:10245E000321F86E0900F5CF01F00150010A52E197
:10246E000A0E0125F66E000E0221F76E000E0321F4
:10247E00F86E0900F5CF4BFB0900F5CF4CFB0900B8
:10248E00F5CF4DFB0D0E0125F66E000E0221F76EF7
:10249E00000E0321F86E0900F5CF4EFB4F6B66EC74
:1024AE0001F0070E0B010125F66E000E0221F76EEC
:1024BE00000E0321F86E0900F5CF0BFB0900F5CFD6
:1024CE000CFB0900F5CF0DFB030E0125F66E000E79
:1024DE000221F76E000E0321F86E0900F5CF0EFBF8
:1024EE00000E0F6F040E0125F66E000E0221F76E20
:1024FE00000E0321F86E0900F5CF10FB000E116FD0
:06250E0054EC08F012007D
:102514000D0E0B010125E96E000E0221EA6EEE504C
:10252400010A3CE1090E0125E96E000E0221EA6E62
:10253400EECF4BFBEECF4CFBEECF4DFB0C0E01254B
:10254400E96E000E0221EA6EEECF4EFB4F6B66EC95
:1025540001F0070E0B010125E96E000E0221EA6E5F
:10256400EECF0BFBEECF0CFB030E0125E96E000E44
:102574000221EA6EEECF0DFB000E0E6F000E0E6F01
:10258400040E0125E96E000E0221EA6EEECF0FFB68
:0E259400000E106F000E106F19EC09F012000F
:1025A2007FA202D00000FCD77F9C02CB63FF01CB4D
:1025B20062FF03CB61FF7F9E7F84F2CF00F0F29E29
:1025C200550E7E6EAA0E7E6E7F8200BE02D0F29EF5
:0825D20001D0F28E7F9412008B
:1025DA00070E0B010125E96E000E0221EA6EEE508C
:1025EA00010AD8A4FAD20201B251010AD8A4D8D059
:1025FA00B26B030E0B010125E96E000E0221EA6E91
:10260A00EECF01F001040B6F0C6B000E0C5B040E95
:10261A000125E96E000E0221EA6EEECF00F00004F9
:10262A000D6F0E6B000E0E5B050E0125D96E000EA6
:10263A000221DA6EDE5001240F6F106B000E102398
:10264A00060E0125D96E000E0221DA6EDE50002434
:10265A00116F126B000E12230F0E0125E96E000E88
:10266A000221EA6EEECF13FB000E146F000E146FF8
:10267A00080E156FAFEC0BF0030E0125E96E000E84
:10268A000221EA6EEECF01F001C00BFB000E0C6FC7
:10269A00040E0125E96E000E0221EA6EEECF00F06B
:1026AA0000C00DFB000E0E6F050E0125D96E000E3F
:1026BA000221DA6EDE5001240F6F106B000E102318
:1026CA00010E0F5F000E105B060E0125D96E000E7B
:1026DA000221DA6EDE500024116F126B000E1223F3
:1026EA00010E115F000E125B0F0E0125E96E000E3E
:1026FA000221EA6EEECF13FB000E146F000E146F68
:10270A00156BAFEC0BF0030E0125E96E000E0221EA
:10271A00EA6EEECF01F00150010F0B6F0C6B000E49
:10272A000C23040E0125E96E000E0221EA6EEECF9B
:10273A0000F00050010F0D6F0E6B000E0E23050EF8
:10274A000125D96E000E0221DA6EDE5001240F6FC8
:10275A00106B000E1023020E0F5F000E105B060EA8
:10276A000125D96E000E0221DA6EDE500024116FA7
:10277A00126B000E1223020E115F000E125B0F0E77
:10278A000125E96E000E0221EA6EEECF13FB000E60
:10279A00146F000E146F080E156F68EC09F0E8D07C
:1027AA00030E0B010125E96E000E0221EA6EEECF3F
:1027BA0001F001040B6F0C6B000E0C5B040E01257B
:1027CA00E96E000E0221EA6EEECF00F000040D6FF2
:1027DA000E6B000E0E5B050E0125D96E000E02214E
:1027EA00DA6EDE5001240F6F106B000E1023060EF6
:1027FA000125D96E000E0221DA6EDE500024116F17
:10280A00126B000E12230F0E0125E96E000E022133
:10281A00EA6EEECF13FB000E146F000E146F156BE9
:10282A00AFEC0BF0030E0125E96E000E0221EA6EF1
:10283A00EECF01F001C00BFB000E0C6F040E012558
:10284A00E96E000E0221EA6EEECF00F000C00DFB29
:10285A00000E0E6F050E0125D96E000E0221DA6EEA
:10286A00DE5001240F6F106B000E1023010E0F5F54
:10287A00000E105B060E0125D96E000E0221DA6EDB
:10288A00DE500024116F126B000E1223010E115F2D
:10289A00000E125B0F0E0125E96E000E0221EA6E90
:1028AA00EECF13FB000E146F000E146F080E156F97
:1028BA0068EC09F0050E0B010125E96E000E0221F4
:1028CA00EA6E050EEE5C54E3060E0125E96E000E73
:1028DA000221EA6E050EEE5C4BE3030E0125E96E5A
:1028EA00000E0221EA6EEECF01F00150010F0B6FCC
:1028FA000C6B000E0C23040E0125E96E000E02215A
:10290A00EA6EEECF00F00050010F0D6F0E6B000E55
:10291A000E23050E0125D96E000E0221DA6EDE5055
:10292A0001240F6F106B000E1023020E0F5F000EB2
:10293A00105B060E0125D96E000E0221DA6EDE50FA
:10294A000024116F126B000E1223020E115F000E8B
:10295A00125B0F0E0125E96E000E0221EA6EEECF20
:10296A0013FB000E146F000E146F156BAFEC0BF017
:10297A000B010C0E0125E96E000E0221EA6EEECF64
:10298A004BFBEECF4CFBEECF4DFB4E6B4F6B66EC29
:10299A0001F0090E0B010125E96E000E0221EA6E13
:1029AA00EECF0BFBEECF0CFB030E0125E96E000EFA
:1029BA000221EA6EEECF0DFB000E0E6F000E0E6FB7
:1029CA00040E0125E96E000E0221EA6EEECF0FFB1E
:1029DA00000E106F000E106FFEEC0FF00B0E0B01C5
:1029EA000125E96E000E0221EA6EEE50000A3DE171
:1029FA00090E0125E96E000E0221EA6EEECF0BFBED
:102A0A00EECF0CFB030E0125E96E000E0221EA6EE1
:102A1A00030EEE240D6F0E6B000E0E23040E01251D
:102A2A00E96E000E0221EA6EEECF05F0060E0125D0
:102A3A00E96E000E0221EA6E0201B851EE5C036EE5
:102A4A00B9C204F0000E045603C000F004C001F03D
:102A5A0001320032019E055000240B010F6F000E57
:102A6A000120106F19EC09F0B8D00B0E0125E96EA0
:102A7A00000E0221EA6EEE50010A55E1090E012507
:102A8A00E96E000E0221EA6EEECF0BFBEECF0CFBD5
:102A9A00030E0125E96E000E0221EA6EEECF05F063
:102AAA00050E0125E96E000E0221EA6E0201BA51F5
:102ABA00EE5C036EBBC204F0000E045603C000F0C5
:102ACA0004C001F001320032019E055000240B01BE
:102ADA000D6F000E01200E6F040E0125E96E000E27
:102AEA000221EA6EEECF05F0060E0125E96E000E10
:102AFA000221EA6E0201B851EE5C036EB9C204F01B
:102B0A00000E045603C000F004C001F00132003286
:102B1A00019E055000240B010F6F000E0120106F5B
:102B2A0019EC09F05AD00B0E0125E96E000E0221AC
:102B3A00EA6EEE50020A51E1090E0125E96E000E15
:102B4A000221EA6EEECF0BFBEECF0CFB030E012542
:102B5A00E96E000E0221EA6EEECF02F0050E0125A3
:102B6A00E96E000E0221EA6E0201BA51EE5C006EB5
:102B7A00BBC201F0000E0156040E005E000E015A9F
:102B8A00025000240B010D6F000E01200E6F040E7F
:102B9A000125E96E000E0221EA6EEECF05F0060E5F
:102BAA000125E96E000E0221EA6E0201B851EE5CBF
:102BBA00036EB9C204F0000E045603C000F004C04C
:102BCA0001F001320032019E055000240B010F6F03
:0C2BDA00000E0120106F19EC09F0120031
:102BE6000B01066B076B0EEC00F00B0102510201A4
:102BF600EE250B01316F03510201EF210B01326FFC
:102C0600240E336F60EC03F0B00E0B016B6F22ECF9
:102C160000F09190996A0B010551075D02E104519C
:102C2600065D0FE201CB87FF91941BEC00F01BECD5
:102C360000F01BEC00F01BEC00F09184064B072B18
:0C2C4600EAD7B20E6B6F22EC00F0120017
:102C520001CB04F002CB05F004C0E9FF05C0EAFF96
:102C6200EE5203E0044A052AF7D704C002F005C079
:102C720003F0044A052A03CB00F004CB01F00B0158
:102C8200034B042B00C0E9FF01C0EAFF02C0E1FFD1
:102C920003C0E2FFEECFE6FF02C0E9FF03C0EAFF96
:102CA200EE5201E0E2D701CB00F002CB01F01200BC
:102CB200070E0B010125F66E000E0221F76E000EC3
:102CC2000321F86E0900F5CF01F00150010AD8A4E2
:102CD200FDD30201B251010AD8A41AD1B26B030E7C
:102CE2000B010125F66E000E0221F76E000E032184
:102CF200F86E0900F5CF02F002040B6F0C6B000EA8
:102D02000C5B040E0125F66E000E0221F76E000E1A
:102D12000321F86E0900F5CF01F001040D6F0E6B6F
:102D2200000E0E5B050E0125F66E000E0221F76EF7
:102D3200000E0321F86E0900F5CF00F000500224C6
:102D42000F6F106B000E1023060E0125F66E000E9B
:102D52000221F76E000E0321F86E0900F5CF00F094
:102D620000500124116F126B000E1223100E012568
:102D7200F66E000E0221F76E000E0321F86E0900B6
:102D8200F5CF13FB000E146F080E156FAFEC0BF0AE
:102D9200030E0125F66E000E0221F76E000E0321CE
:102DA200F86E0900F5CF02F002C00BFB000E0C6FAB
:102DB200040E0125F66E000E0221F76E000E0321AD
:102DC200F86E0900F5CF01F001C00DFB000E0E6F89
:102DD200050E0125F66E000E0221F76E000E03218C
:102DE200F86E0900F5CF00F0005002240F6F106B4F
:102DF200000E1023010E0F5F000E105B060E012560
:102E0200F66E000E0221F76E000E0321F86E090025
:102E1200F5CF00F000500124116F126B000E122347
:102E2200010E115F000E125B100E0125F66E000EF0
:102E32000221F76E000E0321F86E0900F5CF13FB95
:102E4200000E146F156BAFEC0BF0030E0125F66E3E
:102E5200000E0221F76E000E0321F86E0900F5CF75
:102E620002F00250010F0B6F0C6B000E0C23040ECC
:102E72000125F66E000E0221F76E000E0321F86E98
:102E82000900F5CF01F00150010F0D6F0E6B000E1E
:102E92000E23050E0125F66E000E0221F76E000EBE
:102EA2000321F86E0900F5CF00F0005002240F6FE5
:102EB200106B000E1023020E0F5F000E105B060E49
:102EC2000125F66E000E0221F76E000E0321F86E48
:102ED2000900F5CF00F000500124116F126B000EB3
:102EE2001223020E115F000E125B100E0125F66E08
:102EF200000E0221F76E000E0321F86E0900F5CFD5
:102F020013FB000E146F080E156F68EC09F036D132
:102F1200030E0B010125F66E000E0221F76E000E64
:102F22000321F86E0900F5CF02F002040B6F0C6B5F
:102F3200000E0C5B040E0125F66E000E0221F76EE8
:102F4200000E0321F86E0900F5CF01F001040D6FA8
:102F52000E6B000E0E5B050E0125F66E000E0221B1
:102F6200F76E000E0321F86E0900F5CF00F0005055
:102F720002240F6F106B000E1023060E0125F66E51
:102F8200000E0221F76E000E0321F86E0900F5CF44
:102F920000F000500124116F126B000E1223100E6C
:102FA2000125F66E000E0221F76E000E0321F86E67
:102FB2000900F5CF13FB000E146F156BAFEC0BF08D
:102FC200030E0125F66E000E0221F76E000E03219C
:102FD200F86E0900F5CF02F002C00BFB000E0C6F79
:102FE200040E0125F66E000E0221F76E000E03217B
:102FF200F86E0900F5CF01F001C00DFB000E0E6F57
:10300200050E0125F66E000E0221F76E000E032159
:10301200F86E0900F5CF00F0005002240F6F106B1C
:10302200000E1023010E0F5F000E105B060E01252D
:10303200F66E000E0221F76E000E0321F86E0900F3
:10304200F5CF00F000500124116F126B000E122315
:10305200010E115F000E125B100E0125F66E000EBE
:103062000221F76E000E0321F86E0900F5CF13FB63
:10307200000E146F080E156F68EC09F0050E0B01B7
:103082000125F66E000E0221F76E000E0321F86E86
:103092000900F5CF01F0050E015C70E3060E012573
:1030A200F66E000E0221F76E000E0321F86E090083
:1030B200F5CF01F0050E015C61E3030E0125F66E0A
:1030C200000E0221F76E000E0321F86E0900F5CF03
:1030D20002F00250010F0B6F0C6B000E0C23040E5A
:1030E2000125F66E000E0221F76E000E0321F86E26
:1030F2000900F5CF01F00150010F0D6F0E6B000EAC
:103102000E23050E0125F66E000E0221F76E000E4B
:103112000321F86E0900F5CF00F0005002240F6F72
:10312200106B000E1023020E0F5F000E105B060ED6
:103132000125F66E000E0221F76E000E0321F86ED5
:103142000900F5CF00F000500124116F126B000E40
:103152001223020E115F000E125B100E0125F66E95
:10316200000E0221F76E000E0321F86E0900F5CF62
:1031720013FB000E146F156BAFEC0BF00B010D0E71
:103182000125F66E000E0221F76E000E0321F86E85
:103192000900F5CF4BFB0900F5CF4CFB0900F5CF39
:1031A2004DFB4E6B4F6B66EC01F0090E0B010125D6
:1031B200F66E000E0221F76E000E0321F86E090072
:1031C200F5CF0BFB0900F5CF0CFB0900F5CF0DFB8A
:1031D200030E0125F66E000E0221F76E000E03218A
:1031E200F86E0900F5CF0EFB000E0F6F040E0125DD
:1031F200F66E000E0221F76E000E0321F86E090032
:10320200F5CF10FB000E116FAFEC08F00C0E0B01A6
:103212000125F66E000E0221F76E000E0321F86EF4
:103222000900F5CF01F00150000A55E1090E012510
:10323200F66E000E0221F76E000E0321F86E0900F1
:10324200F5CF0BFB0900F5CF0CFB0900F5CF0DFB09
:10325200030E0125F66E000E0221F76E000E032109
:10326200F86E0900F5CF00F0030E00240E6F0F6B0D
:10327200000E0F23040E0125F66E000E0221F76EDA
:10328200000E0321F86E0900F5CF05F0060E0125A8
:10329200F66E000E0221F76E000E0321F86E090091
:1032A200F5CF00F00201B851005C036EB9C204F020
:1032B200000E045603C000F004C001F001320032D7
:1032C200019E055000240B01106F000E0120116FAA
:1032D20054EC08F0FBD00C0E0125F66E000E022114
:1032E200F76E000E0321F86E0900F5CF01F00150D0
:1032F200010A71E1090E0125F66E000E0221F76E38
:10330200000E0321F86E0900F5CF0BFB0900F5CF83
:103312000CFB0900F5CF0DFB030E0125F66E000E26
:103322000221F76E000E0321F86E0900F5CF05F0B9
:10333200050E0125F66E000E0221F76E000E032126
:10334200F86E0900F5CF00F00201BA51005C036E7D
:10335200BBC204F0000E045603C000F004C001F02A
:1033620001320032019E055000240B010E6F000E47
:1033720001200F6F040E0125F66E000E0221F76E7A
:10338200000E0321F86E0900F5CF05F0060E0125A7
:10339200F66E000E0221F76E000E0321F86E090090
:1033A200F5CF00F00201B851005C036EB9C204F01F
:1033B200000E045603C000F004C001F001320032D6
:1033C200019E055000240B01106F000E0120116FA9
:1033D20054EC08F07BD00C0E0125F66E000E022193
:1033E200F76E000E0321F86E0900F5CF01F00150CF
:1033F200020A6CE1090E0125F66E000E0221F76E3B
:10340200000E0321F86E0900F5CF0BFB0900F5CF82
:103412000CFB0900F5CF0DFB030E0125F66E000E25
:103422000221F76E000E0321F86E0900F5CF02F0BB
:10343200050E0125F66E000E0221F76E000E032125
:10344200F86E0900F5CF00F0000E016E0201BA51CC
:10345200005EBB51015A040E005E000E015A02507A
:1034620000240B010E6F000E01200F6F040E0125C8
:10347200F66E000E0221F76E000E0321F86E0900AF
:10348200F5CF05F0060E0125F66E000E0221F76E4D
:10349200000E0321F86E0900F5CF00F00201B851C9
:1034A200005C036EB9C204F0000E045603C000F0C3
:1034B20004C001F001320032019E055000240B01CC
:0E34C200106F000E0120116F54EC08F0120084
:1034D000220E0C6E086A096A0A6A0B6A0C06D8B4D6
:1034E0001FD0D8900B320A3209320832033202322E
:1034F00001320032D8A0F2D70C06D8B409D004505B
:1035000008260550092206500A2207500B22EAD746
:10351000045008260550092206500A2207500B22A3
:02352000120097
:1035220001CB04F002CB05F004C002F005C003F0A9
:10353200044A052A03CB00F004CB01F00B01034B34
:10354200042B00C0E9FF01C0EAFF02C0E1FF03C093
:10355200E2FFEECFE6FF02C0E9FF03C0EAFFEE5250
:0E35620001E0E2D701CB00F002CB01F0120035
:1035700001CBE1FF02CBE2FF05C3E6FF06C3E6FF96
:1035800003CBE1FF04CBE2FF12C3E6FF13C3E6FF68
:1035900005CBE1FF06CBE2FF07C3E6FF08C3E6FF6A
:1035A00007CBE1FF08CBE2FF0EC3E6FF0FC3E6FF48
:0235B000120007
:1035B2008F968F880FEC0EF048C3E1FF49C3E2FFFC
:1035C200FBC2E6FF46C300F047C301F08DEC00F0FA
:0235D2001200E5
:1035D4000B01016B026B110E0301286F120E296F90
:1035E400010E2A6FC80E2B6F55C32CF3552B1EC327
:1035F4002DF31FC32EF31AC32FF31BC330F34DC394
:1036040031F34EC332F320C333F321C334F322C363
:1036140035F323C336F324C337F325C338F326C362
:1036240039F327C33AF34AC33BF30B01016B026B33
:10363400800E0219006E800E005C02E1140E015D22
:1036440018E20151030153250B010B6F02510301D1
:1036540054210B010C6F280E0125E96E030E022183
:10366400EA6EEECF0DFB17EC08F00B01014B022BB9
:10367400DFD76DEC07F00BEC09F046EC08F0120014
:103684008F968F980FEC0EF048C3E1FF49C3E2FF19
:10369400FBC2E6FF46C300F047C301F08DEC00F027
:1036A40001500201FF5D02E10050FE5D010ED8B041
:1036B400000E0B01006F05EC0EF005EC0EF048C394
:1036C400E1FF49C3E2FFFBC2E6FF46C300F047C384
:1036D40001F08DEC00F001500201FF5D02E10050A9
:1036E400FE5D010ED8B0000E026E02500B010015F3
:0836F400006E00C000FB120093
:1036FC008F868F980FEC0EF048C3E1FF49C3E2FFB1
:10370C00FAC2E6FF46C300F047C301F08DEC00F0AF
:02371C00120099
:10371E00B2DF005201E1FCD7000E0301111902E1E4
:10372E00800E101917E1000E0D1902E1400E0C1952
:10373E0011E1DDDF050E00240301126F000E0120E2
:10374E00136F30DF050E002403010E6F000E0120F3
:10375E000F6F10D0CCDF030E00240301126F000E8A
:10376E000120136F1FDF030E002403010E6F000EE6
:06377E0001200F6F120094
:103784000B01016B026B036B58C204FB59C205FBAE
:10379400F3EC15F00B01016B58C202FB59C203FB99
:1037A4005FC204FB60C205FBF3EC15F0AD0E0B0128
:1037B4004B6FBE0E4C6F000E4D6F080E4E6F4F6B6D
:1037C40066EC01F0DD0E0B01016F0A0E026FDF0ED5
:1037D400036F0A0E046FE10E056F0A0E066FE30E07
:1037E400076F0A0E086FC2DEDDCA01FBDECA02FBE8
:1037F400F90E036F0A0E046FCAEC10F0E50E016FA8
:103804000A0E026FA40E036F000E046F88DEE50E2D
:10381400016F0A0E026FF90E036F0A0E046F29EC92
:1038240016F0E50E0B6F0A0E0C6F0D0E0D6F000EE9
:103834000E6F1E0E0F6F000E106F19EC09F0DFCA29
:1038440001FBE0CA02FBF90E036F0A0E046FCAEC17
:1038540010F0E50E016F0A0E026FAC0E036F000E3E
:10386400046F5DDEE50E016F0A0E026FF90E036F41
:103874000A0E046F29EC16F0E50E0B6F0A0E0C6F9E
:103884000D0E0D6F000E0E6F280E0F6F000E106FD1
:1038940019EC09F0E1CA01FBE2CA02FBF90E036F5D
:1038A4000A0E046FCAEC10F0E50E016F0A0E026FE7
:1038B400940E036F000E046F32DEE50E016F0A0EE4
:1038C400026FF90E036F0A0E046F29EC16F0E50E71
:1038D4000B6F0A0E0C6F0D0E0D6F000E0E6F320E75
:1038E4000F6F000E106F19EC09F0E3CA01FBE4CA74
:1038F40002FBF90E036F0A0E046FCAEC10F0E50E1A
:10390400016F0A0E026F9C0E036F000E046F07DE38
:10391400E50E016F0A0E026FF90E036F0A0E046FB3
:1039240029EC16F0E50E0B6F0A0E0C6F0D0E0D6FE1
:10393400000E0E6F3C0E0F6F000E106F19EC09F0A5
:0239440012006F
:103946000A01DF6BE06B000EE05D02E11C0EDF5D3D
:103956001AE20A0EDF250B01016F000E0A01E021B3
:103966000B01026FDDCAE9FFDECAEAFFEECF03FBF9
:10397600D1EC12F00A01DD4BDE2B7FA201D0FDD780
:08398600DF4BE02BE0D712003B
:08398E00DDCA4AF320DE12003D
:103996000201B26B0A01DF6BE06BE16BE46BE86B73
:1039A600EB6BEF6BF26BF66BDDCA70F2DECA71F28F
:1039B6000B01016B026B036B58C204FB59C205FB7A
:1039C600F3EC15F00B01016B58C202FB59C203FB65
:1039D6005FC204FB60C205FBF3EC15F070C2E9FFA1
:1039E60071C2EAFFEECF01F0800E0A01E019006E07
:1039F600800E005C02E10150DF5DD8B060D2010E9E
:103A060002017025D96E000E7121DA6EDECF01F04B
:103A1600DECF02F0000E006E0250005C03E10150A2
:103A26000A01E15D3DE2030E02017025E96E000E1A
:103A36007121EA6EE1CA00F0000E016E026E036E9D
:103A460000360090013602360336EE500024F66E3C
:103A5600EE500120F76EEE500220F86E0900F5CF09
:103A660000F00900F5CF01F000C0E2FA01C0E3FA68
:103A7600020E0024D96E000E0120DA6EDECF01F0B0
:103A8600000E0A01E01902E10150DF1909E1DF4BDE
:103A9600E02BE12BE2CA01FBE3CA02FBEDEC12F0DC
:103AA600060E02017025D96E000E7121DA6EDECF88
:103AB60001F0DECF02F0000E006E0250005C03E162
:103AC60001500A01E45D4AE2080E02017025E96E22
:103AD600000E7121EA6E030E006E000E016E026E7C
:103AE600036EE4CA04F0000E056E066E076EEDDC8A
:103AF600EE500024F66EEE500120F76EEE500220D6
:103B0600F86E0900F5CF00F00900F5CF01F00900C5
:103B1600F5CF02F000C0E5FA01C0E6FA02C0E7FA06
:103B2600020E0024F66E000E0120F76E000E022033
:103B3600F86E0900F5CF01F0000E0A01E01902E166
:103B46000150DF190BE1DF4BE02BE42BE5CA01FB4B
:103B5600E6CA02FBE7CA03FB59EC16F00B0E02019C
:103B66007025D96E000E7121DA6EDECF01F0DECF40
:103B760002F0000E006E0250005C03E101500A01E3
:103B8600E85D3DE20D0E02017025E96E000E712121
:103B9600EA6EE8CA00F0000E016E026E036E003691
:103BA6000090013602360336EE500024F66EEE50D3
:103BB6000120F76EEE500220F86E0900F5CF00F0F6
:103BC6000900F5CF01F000C0E9FA01C0EAFA020ED9
:103BD6000024D96E000E0120DA6EDECF01F0000E51
:103BE6000A01E01902E10150DF1909E1E82BDF4B78
:103BF600E02BE9CA01FBEACA02FB8AEC12F0100EBE
:103C060002017025D96E000E7121DA6EDECF01F049
:103C1600DECF02F0000E006E0250005C03E10150A0
:103C26000A01EB5D4AE2120E02017025E96E000EF2
:103C36007121EA6E030E006E000E016E026E036EB7
:103C4600EBCA04F0000E056E066E076E3EDCEE5003
:103C56000024F66EEE500120F76EEE500220F86E4C
:103C66000900F5CF00F00900F5CF01F00900F5CF06
:103C760002F000C0ECFA01C0EDFA02C0EEFA020E44
:103C86000024F66E000E0120F76E000E0220F86E7C
:103C96000900F5CF01F0000E0A01E01902E101501A
:103CA600DF190BE1EB2BDF4BE02BECCA01FBEDCA76
:103CB60002FBEECA03FB27EC12F01F0E0201702571
:103CC600D96E000E7121DA6EDECF01F0DECF02F082
:103CD600000E006E0250005C03E101500A01F65D21
:103CE6003DE2210E02017025E96E000E7121EA6E99
:103CF600F6CA00F0000E016E026E036E00360090EA
:103D0600013602360336EE500024F66EEE500120E0
:103D1600F76EEE500220F86E0900F5CF00F00900AC
:103D2600F5CF01F000C0F7FA01C0F8FA020E002440
:103D3600D96E000E0120DA6EDECF01F0000E0A0108
:103D4600E01902E10150DF1909E1F62BDF4BE02B08
:103D5600F7CA01FBF8CA02FB98EC11F0150E020136
:103D66007025D96E000E7121DA6EDECF01F0DECF3E
:103D760002F0000E006E0250005C03E101500A01E1
:103D8600EF5D3DE2170E02017025E96E000E71210E
:103D9600EA6EEFCA00F0000E016E026E036E003688
:103DA6000090013602360336EE500024F66EEE50D1
:103DB6000120F76EEE500220F86E0900F5CF00F0F4
:103DC6000900F5CF01F000C0F0FA01C0F1FA020EC9
:103DD6000024D96E000E0120DA6EDECF01F0000E4F
:103DE6000A01E01902E10150DF1909E1EF2BDF4B6F
:103DF600E02BF0CA01FBF1CA02FB38EC11F01A0EF7
:103E060002017025D96E000E7121DA6EDECF01F047
:103E1600DECF02F0000E006E0250005C03E101509E
:103E26000A01F25D4BE21C0E02017025E96E000EDE
:103E36007121EA6E030E006E000E016E026E036EB5
:103E4600F2CA04F0000E056E066E076E68EC1AF0F4
:103E5600EE500024F66EEE500120F76EEE50022072
:103E6600F86E0900F5CF00F00900F5CF01F0090062
:103E7600F5CF02F000C0F3FA01C0F4FA02C0F5FA79
:103E8600020E0024F66E000E0120F76E000E0220D0
:103E9600F86E0900F5CF01F0000E0A01E01902E103
:103EA6000150DF190BE1F22BDF4BE02BF3CA01FBCC
:103EB600F4CA02FBF5CA03FB52EC10F08FD51200D0
:103EC600DDCA02F0DECA03F002C000F003C001F052
:103ED600024A032A00C0E9FF01C0EAFFEE5201E0F0
:103EE600F3D70A01DD51025C006EDE510358016E04
:0A3EF600010E005E000E015A1200DA
:103F000042EC1BF0005201E1FBD7000E0301111936
:103F100002E1800E101919E1000E0D1902E1400EA8
:103F20000C1913E17EEC1BF00A0E005C0301056F17
:103F3000000E0158066FD9EC1AF00A0E005C03015E
:103F4000076F000E0158086F12D07EEC1BF0030EB5
:103F5000005C0301056F000E0158066FD9EC1AF0E2
:103F6000030E005C0301076F000E0158086F12007A
:103F7000DDCA00F00032009E0032009E0032009E3A
:103F80000032009E950E0024F66ED40EF76E000EE1
:103F9000F722000EF86E000EF8220900F5CF00F0AF
:103FA000DECAE1FFDFCAE2FF00C0E6FF010E0A0140
:103FB000DE25E16E000EDF21E26E0F0EDD15006ED4
:103FC000950E0024F66ED40EF76E000EF722000E4A
:103FD000F86E000EF8220900F5CF00F000C0E6FFF1
:103FE000020EDE25E16E000EDF21E26EE66A1200AF
:103FF0000A01DD6B110E0301286F02017451110FCC
:104000000301296F010E2A6FC80E2B6F55C32CF3C5
:10401000552B1EC32DF31FC32EF31AC32FF31BC33F
:1040200030F34DC331F34EC332F320C333F321C316
:1040300034F322C335F323C336F324C337F325C344
:1040400038F326C339F327C33AF3010E0A01DD6FB3
:10405000DD510201745D19E30A01DD51120F006E9A
:10406000016A000E0122280E0024E16E030E0120D9
:10407000E26E740EE96E020EEA6EDD51E926D8B0EA
:10408000EA2AEECFE6FFDD2BE3D70A01DD6B020162
:104090007451130F016E026A000E0222800E006E30
:1040A000800E0218005C03E101500A01DD5D1BE295
:1040B0000A01DD51030153250B010B6F000E0301B3
:1040C00054210B010C6F280EE96E030EEA6E0A01F3
:1040D000DD51E926D8B0EA2AEECF0DFB17EC08F047
:1040E0000A01DD2BD4D76DEC07F00BEC09F046ECA0
:0440F00008F01200C2
:1040F400000E030100191FE1010E006F010E010102
:10410400096F0501546B756BD86BB76B966B536B6A
:10411400746BD76BB66B956B470E346F010E356FAE
:10412400460E0A01DD6F0A0EDE6F33DC8B948B8240
:104134000F014A6B27D00301006B0101096B010ECB
:104144000501546F010E756F010ED86F010EB76F24
:10415400010E966F010E536F010E746F010ED76F2F
:10416400010EB66F010E956F540E346F010E356F4C
:10417400460E0A01DD6F0A0EDE6F0BDC8B848B8228
:0641840082C24AFF120096
:10418A00016AFA0E015C14E2918E030E0C6E2D0E7A
:10419A000D6E0D2EFED70C2EFCD7919E030E0C6EC3
:1041AA002D0E0D6E0D2EFED70C2EFCD7012AE9D747
:0241BA001200F1
:1041BC00B80E0B01016F0A0E026F3B0E036F010E5E
:1041CC00046F91EC1AF0080E0A01D86FD851000850
:1041DC0020E2D805006E016A000E015A890E0024F7
:1041EC00E96E020E0120EA6EEECFDDFAD90EDE6F1B
:1041FC000A0EDF6FB7DEB80E0B01016F0A0E026FED
:10420C00D90E036F0A0E046F29EC16F00A01D807B9
:10421C00DDD7B80E0B010B6F0A0E0C6F0D0E0D6F68
:10422C00000E0E6F5A0E0F6F000E106F19EC09F086
:02423C0012006E
:10423E000A01B851000A0DE1000E0001921902E1C7
:10424E00000E911905E0010E915F000E925BC9DE22
:10425E000DD0B8CA91F0000E0001926F010E915F61
:0E426E00000E925B02017F6B806BBBDE1200C4
:10427C000A01B86B8B948B92FF0E0F014A6F0B01E6
:10428C00016B026B036B58C204FB59C205FBF3ECC8
:10429C0015F00B01016B58C202FB59C203FB5FC244
:1042AC0004FB60C205FBF3EC15F0AD0E0B014B6F7C
:1042BC00BE0E4C6F000E4D6F080E4E6F4F6B66ECC2
:1042CC0001F0D80E0B010B6F000E0C6F500E0D6F22
:1042DC00000E0E6F3C0E0F6F000E106F19EC09F0F4
:1042EC003D0E0B6EE10E0C6E3F0E0D6E0D2EFED7BD
:1042FC000C2EFCD70B2EFAD700000000016B026BC2
:10430C00036B58C204FB59C205FBF3EC15F00B010F
:10431C00016B58C202FB59C203FB5FC204FB60C2B3
:10432C0005FBF3EC15F00B01606B616B7F0E626F9C
:10433C00000E636F080E646F99EC00F0E40E0B0135
:10434C000B6F000E0C6F0D0E0D6F000E0E6F320EFC
:10435C000F6F000E106F19EC09F0CCDD1F0E0B6EF9
:10436C00710E0C6E1E0E0D6E0D2EFED70C2EFCD784
:10437C000B2EFAD700000B01606B616B7F0E626F26
:10438C00000E636F646B99EC00F0AD0E0B014B6F7C
:10439C00BE0E4C6F000E4D6F4E6B4F6B66EC01F00A
:1043AC00B40E0B010B6F000E0C6F0D0E0D6F000E8B
:1043BC000E6F320E0F6F000E106F19EC09F0EF0E2E
:1043CC00606F000E616F626B636B080E646F99EC2B
:1043DC0000F0AD0E0B014B6FBE0E4C6F000E4D6F0F
:1043EC00080E4E6F4F6B66EC01F0C60E0B010B6F97
:1043FC00000E0C6F140E0D6F000E0E6F0D0E0F6F66
:10440C00000E106F19EC09F08FEC1BF01F0E0B6EE9
:10441C00710E0C6E1E0E0D6E0D2EFED70C2EFCD7D3
:10442C000B2EFAD700000B01016B026B036B58C209
:10443C0004FB59C205FBF3EC15F00B01016B58C2E0
:10444C0002FB59C203FB5FC204FB60C205FBF3EC29
:10445C0015F0C2EC1BF0B90E016F0A0E026FBB0E09
:10446C00036F0A0E046FBD0E056F0A0E066FBF0EAA
:10447C00076F0A0E086FB8EC1AF0000E0A01BA5D4D
:10448C0002E1640EB95D07E3BA51010802E1B951CA
:10449C002C0801E302D0010EB86F0E0EBC5D02E1D8
:1044AC00740EBB5D07E3BC510F0802E1BB513C0825
:1044BC0001E302D0010EB86F010EBE5D02E12C0EBD
:1044CC00BD5D07E3BE51010802E1BD51F40801E3F3
:1044DC0002D0010EB86F0D0EC05D02E1AC0EBF5DD7
:1044EC0007E3C0510E0802E1BF51740801E302D08A
:1044FC00010EB86FB851010A15E18B948B820F0134
:10450C004A6B020E0A6E310E0B6E620E0C6E450E6D
:10451C000D6E0D2EFED70C2EFCD70B2EFAD70A2EB5
:10452C00F8D70ED07A0E0B6EC10E0C6E810E0D6E7E
:10453C000D2EFED70C2EFCD70B2EFAD70000000048
:10454C000B01016B026B036B58C204FB59C205FBD8
:10455C00F3EC15F00B01016B58C202FB59C203FBC3
:10456C005FC204FB60C205FBF3EC15F00A01B85105
:08457C00010AD8B47DD612003B
:10458400000E030102192FE1010E026F010E2D6EC0
:104594000901706BF26B0801B16B09012E6B080104
:1045A400D26B09014F6B0A01136B09016F6BF16B3D
:1045B4000801B06B09012D6B0801D16B09014E6B29
:1045C4000A01126B1E0E0801F46F010EF56F6A0EDC
:1045D4000A01DD6F0A0EDE6FCBEC1CF08B948B822C
:1045E4000F014A6B3BD00301026B2D6A010E0901D6
:1045F400706F010EF26F010E0801B16F010E090117
:104604002E6F010E0801D26F010E09014F6F010ECA
:104614000A01136F010E09016F6F010EF16F010E94
:104624000801B06F010E09012D6F010E0801D16F51
:10463400010E09014E6F010E0A01126F2B0E0801C3
:10464400F46F010EF56F6A0E0A01DD6F0A0EDE6F5C
:0E465400CBEC1CF08B848B8282C24AFF1200DA
:10466200000E006E03011951005C02E1185132087C
:1046720008E2070E0A01DD6FC7EC1CF00301186B9C
:04468200196B12009E
:10468600200E0A01B96FBA6B1A0EDD6F000EDE6FCF
:1046960017DC040E005C1EE306011E6B120E0B01F6
:1046A600016F060E026F8AEC12F0080E06011E6FED
:1046B600200E0B01016F020E026F280E036F000E13
:1046C600046F91EC1AF0120E016F060E026F8AEC5F
:1046D60012F01A6A0B01B8CAB9FA1A0E016F000E67
:1046E600026FB90E036F0A0E046F29EC16F0200E46
:1046F600016F020E026F1A0E036F000E046F91EC2B
:104706001AF0120E016F060E026F8AEC12F01200FA
:10471600000E006E03011951005C02E118513208C7
:1047260008E2030E0A01DD6FC7EC1CF00301186BEB
:04473600196B1200E9
:10473A00200E0A01B96FBA6B1A0EDD6F000EDE6F1A
:10474A0063EC1FF0060E005C1EE30901956B890EEF
:10475A000B01016F090E026F8AEC12F0080E0901B3
:10476A00956F760E0B01016F010E026F3D0E036FFE
:10477A00000E046F91EC1AF0890E016F090E026F98
:10478A008AEC12F01A6A0B01B8CAB9FA1A0E016F4A
:10479A00000E026FB90E036F0A0E046F29EC16F0B1
:1047AA00760E016F010E026F1A0E036F000E046F70
:1047BA0091EC1AF0890E016F090E026F8AEC12F061
:0247CA001200DB
:1047CC00000E006E03011951005C02E11851320811
:1047DC0008E2040E0A01DD6FC7EC1CF00301186B34
:0447EC00196B120033
:1047F000B8CAE9FFB9CAEAFFEE5211E0B8CAE9FF48
:10480000B9CAEAFFBACAD9FFBBCADAFFEE50DE184E
:1048100006E10A01B84BB92BBA4BBB2BE9D7B8CA92
:10482000E9FFB9CAEAFFBACAD9FFBBCADAFFDE504C
:0C483000EE5C006E016A000E015A1200DE
:10483C00B80E0B01016F0A0E026FBA0E036F0A0E4F
:10484C00046FBC0E056F0A0E066FBE0E076F0A0EC4
:10485C00086FB8EC1AF0B8CA91F2B9CA92F2BACA97
:10486C0093F2BBCA94F2BCCA95F2BDCA96F2BECA08
:10487C0097F2BFCA98F2820E0A01DD6F020EDE6F4C
:06488C00A3EC1CF0120079
:10489200000E030101192FE1010E016F010E2E6EB0
:1048A2000901706BF26B0801B16B09012E6B0801F3
:1048B200F36B09014F6B0A01136B09016F6BF16B0B
:1048C2000801B06B09012D6B0801F26B09014E6BF7
:1048D2000A01126B110E0801D36F010ED46F6A0E1A
:1048E2000A01DD6F0A0EDE6FCBEC1CF08B948B821B
:1048F2000F014A6B3BD00301016B2E6A010E0901C5
:10490200706F010EF26F010E0801B16F010E090105
:104912002E6F010E0801F36F010E09014F6F010E98
:104922000A01136F010E09016F6F010EF16F010E83
:104932000801B06F010E09012D6F010E0801F26F1F
:10494200010E09014E6F010E0A01126FF60E0801E7
:10495200D36F000ED46F6A0E0A01DD6F0A0EDE6F8E
:0E496200CBEC1CF08B848B8282C24AFF1200C9
:0C4970000CDC370E0A01B86F86DE120066
:10497C0006DC06011E6B120E0B01016F060E026F98
:10498C008AEC12F0080E06011E6F1A0E0A01DD6F7A
:10499C00000EDE6F63EC1FF0000E011802E1040E36
:1049AC00001847E18B848B920F014A6B3D0E0B6E06
:1049BC00E10E0C6E3F0E0D6E0D2EFED70C2EFCD79D
:1049CC000B2EFAD7000000008B848B8282C24AFF28
:1049DC000A01AC6B040EAC5D1AE2990EE16E020E8C
:1049EC00E26EAC51E126D8B0E22A1A0EE96E000E46
:1049FC00EA6EAC51E926D8B0EA2AEECFE6FF820E79
:104A0C00DD6F020EDE6FA3EC1CF0AC2BE3D7190E9E
:104A1C000B01016F020E026F520E036F000E046F3A
:104A2C0091EC1AF0310E016F060E026FEDEC12F0E4
:104A3C0017D08B948B820F014A6B3D0E0B6EE10EDF
:104A4C000C6E3F0E0D6E0D2EFED70C2EFCD70B2EC2
:104A5C00FAD7000000008B848B8282C24AFF8F90B1
:104A6C00200E0B01016F020E026F310E036F000E50
:104A7C00046F91EC1AF0120E016F060E026F8AECA5
:064A8C0012F01A6A12008C
:104A9200C5EC20F0020E0201746F0D0E756F766B7D
:0C4AA200030E0A01B86F1FEC21F0120097
:0E4AAE00C5EC20F0320E0A01B86FE6DD1200F2
:104ABC000A01B151AD5D02E1B051AC5D2DE3B451D1
:104ACC00B025006EB551B121016E010E005C026E75
:104ADC00000E0158036EAD51035C02E1AC51025C57
:104AEC001BE3B351AF5D02E1B251AE5D15E3B651BC
:104AFC00B225006EB751B321016E010E005C026E3F
:104B0C00000E0158036EAF51035C02E1AE51025C22
:0C4B1C0003E3010E006E01D0006A1200DD
:104B2800C5EC20F08B948B92FF0E0F014A6FC2ECFC
:104B38001BF0DEEC20F0020E0A6EAB0E0B6E220E9E
:104B48000C6EC90E0D6E0D2EFED70C2EFCD70B2E3B
:104B5800FAD70A2EF8D78B848B8282C24AFF460E78
:0E4B68000A01DD6F0A0EDE6FCBEC1CF01200AE
:0E4B7600C5EC20F0340E0A01B86F82DD12008B
:104B8400C5EC20F0020E0201746F0D0E756F010E5C
:0E4B9400766F030E0A01B86F1FEC21F01200BD
:104BA200C5EC20F0200E0B01016F020E026F570EB2
:104BB200036F000E046F91EC1AF01A0E016F000ED3
:104BC200026F5C0E036F000E046F91EC1AF06A0E16
:104BD2000A01DD6F0A0EDE6FCBEC1CF0190E0B0121
:104BE200016F020E026F4B0E036F000E046F91EC09
:044BF2001AF01200A3
:0E4BF600C5EC20F0390E0A01B86F42DD120046
:104C0400C5EC20F06A0E0A01DD6F0A0EDE6FCBECF4
:044C14001CF012007E
:104C1800C5EC20F08B948B928F903EEC21F08B8426
:104C28008B8208DE460EDD6F0A0EDE6FCBEC1CF0C1
:024C3800120068
:104C3A00C5EC20F06A0E0A01DD6F0A0EDE6FCBECBE
:044C4A001CF0120048
:104C4E00C5EC20F06A0E0A01DD6F0A0EDE6FCBECAA
:044C5E001CF0120034
:0E4C6200C5EC20F0300E0A01B86F66DD1200BE
:0E4C7000C5EC20F0380E0A01B86F5FDD1200AF
:0C4C7E00C5EC20F00A0E0F014A6F120076
:104C8A00C5EC20F0020E0201746F0B0E756F030E55
:0E4C9A00766F030E0A01B86F1FEC21F01200B6
:104CA800C5EC20F0020E0201746F0B0E756F040E36
:0E4CB800766F030E0A01B86F1FEC21F0120098
:104CC6000A01AC6B360E0B01316F4DEC03F000C0E0
:104CD600ACFA008400C0ACFA360E0B01316F00C08E
:104CE60032FB09EC03F0000E0A01AC15006E00C0A1
:104CF600ACFA360E0B01316F00C032FB09EC03F043
:104D0600100E0C6E940E0D6E0D2EFED70C2EFCD7CB
:044D16000000120087
:0E4D1A00C5EC20F0350E0A01B86FB0DC1200B7
:0E4D2800C5EC20F0380E0A01B86FA9DC1200AD
:104D3600C5EC20F0020E0201746F0B0E756F050EA6
:0E4D4600766F030E0A01B86F1FEC21F0120009
:104D5400C5EC20F0020E0201746F0B0E756F766BBA
:0C4D6400030E0A01B86F1FEC21F01200D2
:104D7000C5EC20F00901956B890E0B01016F090E3E
:104D8000026F8AEC12F0080E0901956F760E0A0187
:104D9000B86F010EB96F990EBA6F020EBB6F28DDA6
:104DA000000E011802E1000E001808E1010E0A01D0
:104DB000DD6F080EDE6FCBEC1CF02FD0760E0A01F3
:104DC000B86F010EB96F440EBA6F000EBB6F10DDE5
:104DD000000E011802E1000E001808E16A0E0A0137
:104DE000DD6F0A0EDE6FCBEC1CF017D08B948B823C
:104DF0000F014A6B3D0E0B6EE10E0C6E3F0E0D6EF9
:104E00000D2EFED70C2EFCD70B2EFAD7000000007B
:104E10008B848B8282C24AFF8F90760E0B01016FCA
:104E2000010E026F360E036F000E046F91EC1AF044
:104E3000890E016F090E026F8AEC12F01A6A1200D5
:104E4000C5EC20F0020E0201746F0B0E756F070E99
:0E4E5000766F030E0A01B86F1FEC21F01200FE
:104E5E00C5EC20F0020E0201746F0B0E756F060E7C
:0E4E6E00766F030E0A01B86F1FEC21F01200E0
:0C4E7C00C5EC20F0640E0F014A6F12001C
:104E8800C5EC20F04ACF82F20A0E0B01016F000E2A
:104E9800026F4ACF03FBD1EC12F06A0E0A01DD6FF4
:0A4EA8000A0EDE6FCBEC1CF01200C6
:104EB200080E0C6EC10E0D6E0D2EFED70C2EFCD7F9
:064EC200000000001200D8
:104EC800360E0301466F060E476F310E486F0B0E04
:0E4ED800496FC26A0F0EC012C08EC280120057
:0E4EE6008B848B920F014A6B31EC23F012008B
:0A4EF4008B848B8282C24AFF1200F9
:0C4EFE00C5EC20F0F00E0F014A6F12000E
:104F0A00020E0B010B6F020E0C6F800E0D6F17EC69
:044F1A0008F0120089
:104F1E000450085E0550D8A0053C095E0650D8A086
:104F2E00063C0A5E0750D8A0073C0B5E0336070E00
:104F3E000C6E0334083609360A360B36045003A0BD
:104F4E000ED0085E0550D8A0053C095E0650D8A0CC
:104F5E00063C0A5E0750D8A0073C0B5E0DD0082613
:104F6E000550D8B0053C09260650D8B0063C0A2696
:104F7E000750D8B0073C0B2603360C2EDAD7023476
:104F8E00083609360A360B36045003A00ED0085EDA
:104F9E000550D8A0053C095E0650D8A0063C0A5E16
:104FAE000750D8A0073C0B5E0DD008260550D8B090
:104FBE00053C09260650D8B0063C0A260750D8B044
:104FCE00073C0B260236070E0C6E023408360936E5
:104FDE000A360B36045002A00ED0085E0550D8A03B
:104FEE00053C095E0650D8A0063C0A5E0750D8A0C4
:104FFE00073C0B5E0DD008260550D8B0053C09269F
:10500E000650D8B0063C0A260750D8B0073C0B26EF
:10501E0002360C2EDAD70134083609360A360B362C
:10502E00045002A00ED0085E0550D8A0053C095EC3
:10503E000650D8A0063C0A5E0750D8A0073C0B5E6F
:10504E000DD008260550D8B0053C09260650D8B01C
:10505E00063C0A260750D8B0073C0B260136070E31
:10506E000C6E0134083609360A360B36045001A090
:10507E000ED0085E0550D8A0053C095E0650D8A09B
:10508E00063C0A5E0750D8A0073C0B5E0DD00826E2
:10509E000550D8B0053C09260650D8B0063C0A2665
:1050AE000750D8B0073C0B2601360C2EDAD7003449
:1050BE00083609360A360B36045001A00ED0085EAB
:1050CE000550D8A0053C095E0650D8A0063C0A5EE5
:1050DE000750D8A0073C0B5E0DD008260550D8B05F
:1050EE00053C09260650D8B0063C0A260750D8B013
:1050FE00073C0B260036070E0C6E003408360936B8
:10510E000A360B36045000A00ED0085E0550D8A00B
:10511E00053C095E0650D8A0063C0A5E0750D8A092
:10512E00073C0B5E0DD008260550D8B0053C09266D
:10513E000650D8B0063C0A260750D8B0073C0B26BE
:10514E0000360C2EDAD700B00ED0045008260550CB
:10515E00D8B0053C09260650D8B0063C0A260750A2
:08516E00D8B0073C0B2612002B
:10517600070E0B6E170E0C6E6A0E0D6E0D2EFED7F9
:0C5186000C2EFCD70B2EFAD700001200F4
:10519200C5EC20F0300E0A01B86F43EC23F0120088
:1051A200C5EC20F0310E0A01B86F43EC23F0120077
:1051B200C5EC20F0330E0A01B86F43EC23F0120065
:1051C200C5EC20F0D50E0A01DD6F060EDE6FCBECCA
:0E51D2001CF07C0E0201C96F150ECA6F120090
:1051E0000B1E0A1E091E081E082AD8B4092AD8B4A4
:0851F0000A2AD8B40B2A1200B0
:1051F800C5EC20F0360E0A01B86F43EC23F012001C
:10520800C5EC20F0760E0B01016F010E026F210E26
:10521800036F000E046F91EC1AF01A0E016F000E66
:10522800026F200E036F000E046F91EC1AF0D50E7A
:105238000A01DD6F060EDE6FCBEC1CF07C0E02015E
:08524800C96F150ECA6F1200B8
:10525000C5EC20F0D50E0A01DD6F060EDE6FCBEC3B
:0E5260001CF07C0E0201C96F150ECA6F120001
:10526E00C5EC20F0800E0A01DD6F040EDE6FCBEC74
:04527E001CF012000E
:10528200C5EC20F0310E0A01B86F9DEC23F012003C
:10529200C5EC20F0340E0A01B86F9DEC23F0120029
:0A52A200C5EC20F049EC24F01200E6
:0A52AC00C5EC20F0C2EC22F0120065
:1052B600C5EC20F0460E0A01DD6F0A0EDE6FCBEC60
:0452C6001CF01200C6
:1052CA00C5EC20F0330E0A01B86F9DEC23F01200F2
:0A52DA00C5EC20F07AEC20F0120081
:1052E400C5EC20F08B848B92FF0E0F014A6F010EE8
:1052F4000201746F0A0E756F050E0A01B86F1FEC78
:1053040021F03D0E0B6EE10E0C6E3F0E0D6E0D2E58
:10531400FED70C2EFCD70B2EFAD7000000008B848E
:085324008B8282C24AFF1200D5
:10532C00C5EC20F0730E0A01DD6F060EDE6FCBECC0
:04533C001CF012004F
:10534000C5EC20F0E60E0A01DD6F040EDE6FCBEC3B
:045350001CF012003B
:10535400C5EC20F0390E0A01B86F9DEC23F0120061
:0E5364008B848B920F014A6BE6EC23F0120053
:10537200C5EC20F0020E0201746F0B0E756F020E67
:0E538200766F030E0A01B86F1FEC21F01200C7
:10539000C5EC20F08B848B8282C24AFFDD0E0A01AD
:0C53A000DD6F070EDE6FCBEC1CF012007E
:0A53AC008B848B8282C24AFF12003C
:0E53B6008B848B920F014A6B8BEC23F012005C
:0A53C400C5EC20F00F014A6B120047
:0A53CE008B848B8282C24AFF12001A
:1053D800C5EC20F0970E0A01DD6F060EDE6FCBECF0
:0453E8001CF01200A3
:1053EC00C5EC20F0320E0A01B86F9DEC23F01200D0
:1053FC00C5EC20F0360E0A01B86F9DEC23F01200BC
:10540C00C5EC20F0020E0201746F0B0E756F010ECD
:0E541C00766F030E0A01B86F1FEC21F012002C
:10542A00C5EC20F0350E0A01B86F9DEC23F012008E
:10543A00C5EC20F0370E0A01B86F9DEC23F012007C
:10544A0016D03E0E0B01316F4DEC03F0800E0010AA
:10545A000B01326F3E0E316F09EC03F00FD03E0E96
:10546A000B01316F400E326F09EC03F007D00A01CD
:0E547A00A651010AE6E0A651020AF1E0120076
:105488005AD03A0E0B01316F4DEC03F0800E00102C
:105498000B01326FDF0E32173A0E316F09EC03F051
:1054A8003F0E0B01316F600E326F09EC03F04DD0E7
:1054B8003A0E0B01316F4DEC03F0400E00100B015A
:1054C800326F7F0E32173A0E316F09EC03F03A0E45
:1054D8000B01316F4DEC03F0380E00100B01326FE9
:1054E800FB0E32173A0E316F09EC03F02ED03A0E4C
:1054F8000B01316F4DEC03F0C00E00100B01326F41
:105508003A0E316F09EC03F03A0E0B01316F4DEC96
:1055180003F0380E00100B01326FFB0E32173A0EF3
:10552800316F09EC03F03F0E0B01316F600E326FE3
:1055380009EC03F00AD00A01A651010AA2E0A6511B
:0C554800020AB6E0A651030AD2E01200ED
:10555400800E1A0A006E800E0A01A619005C08E388
:10556400800EA619006E800E0B0A005C01E302D0C7
:105574000B0EA66FA0D0000E0B010B6F020E0C6F6A
:10558400020E0D6F17EC08F0CED0000E0B010B6F5E
:10559400020E0C6F120E0D6F17EC08F0C4D0000E43
:1055A4000B010B6F020E0C6F220E0D6F17EC08F03F
:1055B400BAD0000E0B010B6F020E0C6F320E0D6F82
:1055C40017EC08F0B0D0000E0B010B6F020E0C6F3D
:1055D400420E0D6F17EC08F0A6D0000E0B010B6FF6
:1055E400020E0C6F520E0D6F17EC08F09CD0000EDB
:1055F4000B010B6F020E0C6F620E0D6F17EC08F0AF
:1056040092D0000E0B010B6F020E0C6F720E0D6F19
:1056140017EC08F088D0000E0B010B6F020E0C6F14
:10562400820E0D6F17EC08F07ED0000E0B010B6F8D
:10563400020E0C6F920E0D6F17EC08F074D0000E72
:105644000B010B6F020E0C6FA20E0D6F17EC08F01E
:105654006AD0000E0B010B6F020E0C6FB20E0D6FB1
:1056640017EC08F060D0000E0B010B6F020E0C6FEC
:10567400C20E0D6F17EC08F056D0000E0B010B6F25
:10568400020E0C6FD20E0D6F17EC08F04CD0000E0A
:105694000B010B6F020E0C6FE20E0D6F17EC08F08E
:1056A40042D0000E0B010B6F020E0C6FF20E0D6F49
:1056B40017EC08F038D00A01A6510B0AD8B45BD70E
:1056C400A6510C0AD8B461D7A6510D0AD8B467D72D
:1056D400A6510E0AD8B46DD7A6510F0AD8B473D701
:1056E400A651100AD8B479D7A651110AD8B47FD7D5
:1056F400A651120A86E0A651130A8DE0A651140A97
:1057040094E0A651150A9BE0A651160AA2E0A65100
:10571400170AA9E0A651180AB0E0A651190AB7E081
:0C572400A6511A0ABEE063EC26F0120049
:0E573000320E0B01316F326B09EC03F01200E8
:10573E00A6CAE6F2A7CAE7F2A8CAE8F2000E02016C
:10574E00E96FA9CAF4F2000EF56FF66BF76BF4C2AF
:10575E0004F0F5C205F0A6CA00F0A7CA01F04AECA3
:10576E0000F000C0AAFA01C0ABFAAACAF0F2ABCAA6
:10577E00F1F2AACA00F0ABCA01F0E8C204F0E9C225
:10578E0005F065EC00F000C058F201C059F2E8C215
:10579E0000F0E9C201F001320032019E0132003206
:1057AE00019E01320032019EAACA04F0ABCA05F076
:1057BE0065EC00F000C05FF201C060F29A949A921C
:1057CE009A909A989184918291809188FF0E996E09
:1057DE009198CADC9188C8DC810E0B016B6F22ECAC
:1057EE0000F0A9CA04F0000E056EE6C200F0E7C292
:1057FE0001F04AEC00F000C031FB01C032FB430E59
:10580E000B01336F60EC03F0F0C231FBF1C232FBDF
:10581E00410E0B01336F60EC03F002015F5158250E
:10582E000B01046F0201605159210B01056F02013A
:10583E00EE6BEF6B58C2F2F259C2F3F20B01016B31
:10584E00026B036BF3EC15F0900E02016A6F0B0105
:10585E00316B326B420E336F60EC03F058C231FB8A
:10586E0059C232FB400E0B01336F60EC03F0120095
:10587E000F01258125839280928264EC27F012001D
:10588E008F968F9898969898840E0201FE6F030E4D
:10589E00FF6FA6CA10F3A7CA11F3A8CA0CF3A9CAC0
:1058AE000DF3AACAFAF2ABCAFBF20301036B046B47
:0858BE000201FC6BFD6B1200FE
:1058C600180E0B01316F980E326F09EC03F02E0E95
:1058D6000B01316F950E326F09EC03F0010E0B01CF
:1058E6000B6F020E0C6F010E0D6F17EC08F085ECB6
:1058F60027F0060E0B010B6F020E0C6F900E0D6F4C
:1059060017EC08F0070E0B010B6F020E0C6F800EE2
:105916000D6F17EC08F0080E0B010B6F020E0C6FE3
:10592600100E0D6F17EC08F0200E0B010B6F020E18
:105936000C6F210E0D6F17EC08F02F0E0B010B6F7D
:0E594600020E0C6F0F0E0D6F17EC08F0120022
:0A595400A6CAFEF2A7CAFFF2120075
:10595E008F968F88000E0301111902E1800E101927
:10596E0009E1000E0D1902E1400E0C1903E159EC8C
:10597E0027F002D00FEC0EF048C3E1FF49C3E2FF5F
:10598E00FBC2E6FF46C300F047C301F08DEC00F00A
:02599E001200F5
:1059A0000450000A12E10550000A0FE10650000AF7
:1059B0000CE10750000A09E1FF0E006EFF0E016EB8
:1059C000FF0E026E7F0E036E99D00C6A07BE0C2A82
